:030000000217B72D
:0C17B700787FE4F6D8FD75815402140917
:10157D0043757272656E743A00252E3266204100F5
:10158D004F5645524C4F41440043495243554954DF
:10159D0020425245414B45440020202057454C43A5
:1015AD004F4D4520544F2020200020204F555220D4
:1015BD0050524F4A45435420202000434952435531
:1015CD00495420425245414B455200205553494EF6
:1015DD00472050415353574F52442000313233343A
:1015ED0000414343455353204752414E5445440017
:1015FD0035363738004143434553532044454E4912
:03160D0045440051
:0716BC0012176B7F0A7E008C
:1016C300758901E4FDFCC3ED9FEC9E5016758CFCFF
:1016D300758A18D28C308DFDC28CC28D0DBD000170
:0316E3000C80E395
:0116E60022E1
:0E175D007FE87E031216C37F0112176B7F8098
:10176B00C2B28FA0D2B47F057E001216C3C2B402E0
:02177B0016C393
:10179800D2B28FA0D2B47F647E001216C3C2B40244
:0217A80016C366
:101738008B398A3A893BAB39AA3AA93B120D4160E9
:1017480013053BE53B7002053A14F9120D41FF12EF
:05175800179880E22259
:10177D007F381216BC7F0F1216BC7F011216BC7F6C
:0B178D008012176B7F0A7E000216C35B
:1014CB00AC07E4120B21E4FBFA79A078401208F880
:1014DB00E4FBFA797F7843120A018F2A8E298D2833
:1014EB008C27E4FFFE7D207CC0AB2AAA29A928A863
:1014FB00271208077BA47A70793D783E120A0112F5
:10150B0017AA8F2E8E2D8D2C8C2B7F8012176B7B19
:10151B00FF7A15797D121738753CFF753D15753EB1
:10152B0086852E42852D41852C40852B3F7B007A6D
:10153B0000792F120FF67B007A00792F121738E4FF
:10154B00FFFE7D407C40AB2EAA2DA92CA82B120AA6
:10155B009E601E401CD2B31217647BFF7A15798DE7
:10156B001217387FC012176B7BFF7A1579961217FB
:01157B003837
:01157C00224C
:10167D00758920759850BE250BBF8008758BFD753B
:10168D008DFD8028BE120BBFC008758BFA758DFAC3
:10169D00801ABE090BBF6008758BF4758DF4800C34
:0F16AD00BE0409BFB006758BE8758DE8D28E229A
:0817C3008F993099FDC29922B3
:0817CB003098FDC298AF99228D
:0616E7008B088A09890A44
:1016ED00E4FEAB08AA09A90A8E82758300120D5A71
:1016FD006011AF060E8F82758300120D5AFF1217FF
:03170D00C380DFB7
:0117100022B6
:0A1610008B278A2889298C2A8D2B4C
:10161A007F507EC3E4F50B209818EF1F70011EEF70
:10162A004E70F4AB27AA28A929852D82852C83021E
:10163A000D99E4F52CF52DC3E52D952BE52C952A6E
:10164A00501D1217CBAB27AA28A929852D82852CD4
:10165A0083EF120D99052DE52D70DC052C80D8AB92
:10166A0027AA28A929852B82852A83E4120D997530
:02167A000B0162
:01167C00224B
:101409007F807E2512167D1216BFC2B312177D7B0F
:10141900FF7A1579A61217387FC012176B7BFF7AEE
:101429001579B712173812175D7BFF7A1579C8122B
:1014390017387FC012176B7BFF7A1579D8121738C6
:1014490012175D7FE87E031216C37B007A007922AA
:101459007D047C00121610E50B6401703E121764BE
:1014690078227C007D007BFF7A1579E9120F7DEFE8
:101479007004D2B3801478227C007D007BFF7A153A
:1014890079FD120F7DEF700AC2B37BFF7A1579EEF1
:1014990080067BFF7A167902121738D2B5C2B67F59
:1014A900E87E031216C3D2B620B7FD7FE87E031289
:1014B90016C3C2B57F8012176BAF901214CBD2B787
:0214C900808819
:10080000020B8AE86480F8E933E83360110460F091
:10081000ED33EC337009E8FCE9FDEAFEEBFF22045E
:1008200060DED3EB9FEA9EE99DE8C2E78CF0C2F759
:1008300095F0400CE8CCF8E9CDF9EACEFAEBCFFB25
:10084000120B5585D0F05804700320D5B3E804701E
:10085000075002B2D5020B9492D5EC0460F7E4CCB9
:10086000C0E0C398F8603B94186008400DD0E0FBEE
:10087000020B6CE4FBFAC9FC8028E830E406E4C90A
:10088000FBE4CAFCE830E305E4C9CACBFCE8540742
:100890006010F8C3E913F9EA13FAEB13FBEC13FC4D
:1008A000D8F130F52FC3E49CFCEF9BFFEE9AFEEDF0
:1008B00099FDD0E0FBEF4E4D4C701222DB03020B92
:1008C00091EC2CFCEF33FFEE33FEED33FDED30E722
:1008D000EB020B6CEF2BFFEE3AFEED39FDD0E0FBA7
:1008E00050130BBB0003020B94ED13FDEE13FEEF50
:0808F00013FFEC13FC020B6C7A
:1008F800EC4D6011E8497017ED33EC3304600DE4FA
:10090800FCFFFEFD22E933E8330470F8020B8A127B
:100918000B5558046009E4CC24815006285009027C
:100928000B94284003020B91C0E0EB4A7044B98055
:1009380006D0E0FB020B80EF4E701CBD8008EBFF79
:10094800EAFEE9FD80EBE98DF0A4FEE5F00209E19D
:10095800E9CDF9EAFEEBFFEF89F0A4FCE5F0CE89DA
:10096800F0A42EFFE435F0CD89F0A42DFEE435F097
:100978008067EF4E7005BD80D780C3EF8BF0A4ACC5
:10098800F0EE8BF0A42CFCE435F0F8EF8AF0A42C00
:10099800E5F038FCE433CB8DF0A42CFCE5F03BF813
:1009A800EE8AF0A42CFCE5F038F8E433CF89F0A403
:1009B8002CFCE5F038CF3400CE89F0A42FFFE5F009
:1009C8003EFEE433C98DF0A42EFEE5F039CD8AF061
:1009D800A42FFFE5F03EFEE43DFD33D0E0FB5007D9
:1009E8000BBB000F020B94EC2CFCEF33FFEE33FE35
:0609F800ED33FD020B6C63
:1009FE00020B94EC5D046005E859047003020B8A47
:100A0E00120B55580460F6EC4860F2EC7004FDFED3
:100A1E00FF22C860DB2481C85009C39860025006CB
:100A2E00020B919850CAF582E9294B4A7005AB82A8
:100A3E00020B8075F0007C1A7880C3EF9BEE9AED66
:100A4E0099400DC3EF9BFFEE9AFEED99FDE842F043
:100A5E00DC23ACF0D0E0FFD0E0FED0E0FDAB822096
:100A6E00E7101BEB60BAEC2CFCEF33FFEE33FEED20
:100A7E0033FD020B6CE803F830E705C0F075F000AB
:100A8E00EF2FFFEE33FEED33FD40B830E7C280AA04
:100A9E0074F8CC6480CCC86480C8F58204604FC3FF
:100AAE00EB9FF5F0EA9E42F0E99D42F0E89C45F09E
:100ABE00603C501DE5825FFFE582D313CB5BCBF428
:100ACE002B5582FB50280ABA002409B90020088051
:100ADE001DE5825BFBE582D313CF5FCFF4C3132FEB
:100AEE005582FF50090EBE00050DBD00010CC3EB73
:100AFE009FF5F0EA9E42F0E99D42F0E89C45F060D9
:090B0E0007CC4820E701B3EC22FA
:100B170075F020800E75F010800575F0087D007E59
:100B2700007F003392D530D503120DBBEC33401054
:100B3700EF33FFEE33FEED33FDEC33FCD5F0ED2262
:0E0B4700E5F0247EA2D513CC92E7CDCEFF229E
:100F9A00E550243CF8E60550227839300702783CBF
:100FAA00E475F001120DC9020D412000EB7F2ED22B
:100FBA00008018EF540F2490D43440D4FF30040B2F
:100FCA00EF24BFB41A0050032461FFE551600215F3
:100FDA00510554E5547002055330070D7839E4750C
:100FEA00F001120DC9EF020D870217117403D2071F
:100FFA008003E4C207F5508B398A3A893BE4F551FC
:10100A00F553F554E55160077F20120FD580F57529
:10101A0052FFC201C200C202C203C205C206C2080E
:10102A00120FA3FF700D3007057F00120FE6AF54B1
:10103A00AE5322B4255FC2D5C204120FA3FF24D037
:10104A00B40A00501A75F00A785130D50508B6FF6F
:10105A000106C6A426F620D5047002D20380D9243C
:10106A00CFB41A00EF5004C2E5D2040212D3D2015F
:10107A0080C6D20080C0D20280BCD2D580BAD20546
:10108A0080B47F20120FD52002077401B5510040A9
:10109A00F1120F9AFF120FD502100ED208D2068053
:1010AA0095120F9AFB120F9AFA120F9AF94A4B707D
:1010BA000679CA7A137BFF20022EE551602A7E0048
:1010CA008E82758300120D5A60060EEE655270F01C
:1010DA00C2D5EBC0E0EAC0E0E9C0E0EE121333D0BB
:1010EA00E0F9D0E0FAD0E0FB120D41FF60AAEBC0B4
:1010FA00E0EAC0E0E9C0E0120FD5D0E02401F9D05F
:10110A00E03400FAD0E0FBE5520460DCD552D98025
:10111A0087D20280A212131660F7E55270010412F8
:10112A000B9FA952600DE552600914F5521213BDC6
:10113A00EF60F3EA30E702F404C3995077EAF42542
:10114A00520430E701E404F552800D12131660C10F
:10115A00EA05522552120B9FEA784FF630E701E46E
:10116A00255204D5520420050114121333E4C0E0B9
:10117A001213BD784FE6601320E70714F6120FBD6D
:10118A00802204F6D0E014C0E07F00120FBDE552C1
:10119A006007120FB41552800B300503120FB4D03A
:1011AA00E002100ED0E00480C512131660A0E552CA
:1011BA0004120B9F784FEAF6E552200502600104FB
:0511CA002404121333A0
:1011CF0074FF04C0E01213BD120FBDE552200502DB
:1011DF006003120FB4D0E0B552E87F45120FC77805
:1011EF004FE67F2B30E7047F2DF404C0E0120FD5BC
:1011FF00D0E075F00A84C0F0120FBED0E0120FBE1F
:10120F0002100E791080027908C206C2088008D237
:10121F00D5790A8004790AC2D5E552047002F552D5
:10122F00E4FAFDFEFF120F9AFC7B08200113120F48
:10123F009AFD7B1030000A120F9AFE120F9AFF7B55
:10124F0020EC3382D592D55013C3E43000069FFFB4
:10125F00E49EFEE42001039DFDE49CFCE4CBF8C278
:10126F0001EC700CCFCECDCCE824F8F870F38017DA
:10127F00C3EF33FFEE33FEED33FDEC33FCEB33FB0B
:10128F00994002FB0FD8E9EB300105F8D0E0C448D4
:10129F00B201C0E00AEC4D4E4F78207B0070C2EADD
:1012AF00B5520040BCC0E0121335D0F0D0E02001A1
:1012BF0004C4C0E0C4B201C0F0120FBED0F0D5F02C
:1012CF00EB02100E120DD910AB53121258107C4CAA
:1012DF0010784212164F121E44121E4910914312DB
:1012EF00245511554611B345111F4713EA5010806D
:1012FF002D10842E10A72B10882310A52013D32A6E
:10130F001040480000109FE552B4FF0375520612BB
:10131F000F9AFC120F9AFD120F9AFE120F9AFF7876
:10132F0048020BCE790AA2D5200314300509B91053
:10133F00020404B9080104A2D520060250010420BA
:10134F0002689202B551005034C0E07F203003197B
:10135F007F30A20272067205500F12138CC202C2A6
:10136F0006C205C2087F30800F300503E9C0E012C6
:10137F000FD5300503D0E0F9D0E0B551CC300517CB
:10138F007F30B9100C120FD57F583004077F78804B
:10139F0003B90803120FD53002057F2D020FD57F39
:1013AF00202008F87F2B2006F322920280CF7F00A7
:1013BF00B4070050052448F8E6FF22286E756C6CC0
:1013CF002900D201120F9A3001F8C201785130D59D
:1013DF000108F60210402D50434958120F9A24036A
:1013EF00B405004001E49013E593120FC6743A124E
:0A13FF000FC6D2037551040212124A
:0D17AA00ED33EC3360065004EC6480FC224B
:100B5500E9D2E7C933E833F892D5EDD2E7CD33ECE6
:070B650033FC5002B2D5225F
:100B6C00EC30E7100FBF000C0EBE00080DBD0004EA
:100B7C000BEB6014A2D5EB13FCED92E7FD2274FF96
:100B8C00FCFDFEFF22E480F8A2D574FF13FC7D80EF
:030B9C00E480EF03
:100B9F00F920E72824F950037907E4F42402FB181D
:100BAF00DBFDE624FB5014E9600DE4F618E604F6CD
:0F0BBF00B40A08E4F6D9F57401F60A22C2D52269
:100BCE00ED33EC3392D5FA602AB4FF33EDC2E77BF6
:100BDE00FF60067A0B79F3E4227A0B79FC20D504B8
:100BEE007A0B79F7224E614E002B494E46002D4965
:100BFE004E4600E47A08F608DAFC7B00740722E819
:100C0E00C0E0ECC0E0EDC0E0EEC0E0EFC0E0EA75A1
:100C1E00F010A4CAABF075F04DA42BFBE435F0FC3C
:100C2E00EA2410FAEB34C5FBEC34D9FCEDC2E7FF35
:100C3E0075F056A4F42411C5F0F434C58FF0A42A2F
:100C4E00E5F03BE43CF620E714120D01D0E0FFD0B6
:100C5E00E0FED0E0FDD0E0FC120A018014F4041294
:100C6E000D01D0E0FFD0E0FED0E0FDD0E0FC120898
:100C7E00F8D0E0F8E6FAEDD2E7CD33EC332482FB80
:100C8E00E4C3CF33CFCE33CECD33CD33DBF37B07BF
:100C9E0075F00A846004F6081B0AE5F0F6088FF07A
:100CAE00740AA4FFACF08EF0740AA42CFEACF050C3
:100CBE00010C8DF0740AA42CFDE435F0F608DBDE91
:030CCE0074072286
:100CD1003F8000004120000042C80000447A00002B
:100CE100461C400047C35000497424004B189680AD
:100CF1004CBEBC205A0E1BCA6753C21C749DC5AEA4
:100D0100FB60065407601C2323120D2FEB5438603F
:100D110009120D1B120D2A1208F8ECF8EDF9EEFA82
:100D2100EFCB22EB120D2A80F1543803241C900CD6
:100D3100D1FE93FC0EEE93FD0EEE930ECE93FF22A9
:100D4100BB010689828A83E0225002E722BBFE02B0
:090D5100E32289828A83E49322E3
:100D5A00BB010CE58229F582E5833AF583E022504E
:100D6A0006E92582F8E622BBFE06E92582F8E22298
:0D0D7A00E58229F582E5833AF583E49322B2
:100D8700BB010689828A83F0225002F722BBFE014B
:020D9700F32245
:100D9900F8BB010DE58229F582E5833AF583E8F090
:100DA900225006E92582C8F622BBFE05E92582C83C
:020DB900F22224
:0E0DBB00C3E49FFFE49EFEE49DFDE49CFC2249
:100DC900FAE6FB0808E6F925F0F618E6CA3AF6222B
:100DD900D083D082F8E4937012740193700DA3A3A9
:100DE90093F8740193F5828883E4737402936860BD
:060DF900EFA3A3A380DFBD
:10171100EFB40A07740D12171C740A309811A899B6
:10172100B8130CC2983098FDA899C298B811F63038
:0717310099FDC299F5992210
:100DFF00E3F5F009E208B5F06D606B80F3E3F5F011
:100E0F0009E608B5F060605E80F387F009E608B583
:100E1F00F054605280F487F009E208B5F04860465C
:100E2F0080F488828C8387F009E0A3B5F0386036B0
:100E3F0080F488828C8387F009E493A3B5F0276050
:100E4F002580F388828C83E3F5F009E0A3B5F016D3
:100E5F00601480F388828C83E3F5F009E493A3B5E3
:100E6F00F004600280F2020F2A808580E7808E8076
:100E7F00D2803C8015806C807E809B80B5808B807B
:100E8F00A1804F8070803A020F3689828A83ECFAF4
:100E9F00E493F5F0A3C8C582C8CCC583CCE493A373
:100EAF00C8C582C8CCC583CCB5F070606E80E189AF
:100EBF00828A83E493F5F0A3E208B5F05E605C806C
:100ECF00F289828A83E0F5F0A3E608B5F04D604B16
:100EDF0080F389828A83E0F5F0A3E208B5F03C60E5
:100EEF003A80F389828A83E493F5F0A3E608B5F09C
:100EFF002A602880F2805389828A83ECFAE493F582
:100F0F00F0A3C8C582C8CCC583CCE0A3C8C582C82E
:100F1F00CCC583CCB5F004600280E27FFFB5F00250
:100F2F000F2240027F012289828A83ECFAE0F5F0DA
:100F3F00A3C8C582C8CCC583CCE0A3C8C582C8CC22
:100F4F00C583CCB5F0D560D380E389828A83ECFA70
:100F5F00E0F5F0A3C8C582C8CCC583CCE493A3C881
:100F6F00C582C8CCC583CCB5F0B160AF80E288F044
:100F7F00ED2402B4040050A3F582EB2402B4040064
:0B0F8F0050992323458223900E7873B5
:00000001FF
